02RETORNO01COBRANCA       00000000000004551915ASSOCIACAO PAULISTA DE CIRURGI237BRADESCO       3103200160000001467                                                                                                                                                                                                                                                                          310320         000001
102473318220001190000009000910152974401946                           0000004019460          00000000000000090631032087236     0000000000290000001P231219000000000238923704151  000000000020800000000000000000000000000000000000000000000000000000000000000000000000000238900000000000000000000000000   310320                                                                                             000002
102473318220001190000009000910152974513584                           0000005135847          00000000000000090631032087236     0000000000290000001P280120000000000238923704151  000000000020800000000000000000000000000000000