02RETORNO01COBRANCA       00000000000004551915ASSOCIACAO PAULISTA DE CIRURGI237BRADESCO       0104200160000001467                                                                                                                                                                                                                                                                          010420         000001
102473318220001190000009000910152974401946                           0000004019460          00000000000000090601042087236     0000000000290000001P231219000000000238923704151  000000000020800000000000000000000000000000000000000000000000000000000000000000000000000238900000000000000000000000000   010420                                                                                             000002
102473318220001190000009000910152974513584                           0000005135847          00000000000000090601042087236     0000000000290000001P280120000000000238923704151  000000000020800000000000000000000000000000000000000000000000000000000000000000000000000238900000000000000000000000000   010420                                                                                             000003
102473318220001190000009000910152974606476                           0000006064766          00000000000000090601042087236     0000000000290000001P280220000000000238923704151  000000000020800000000000000000000000000000000000000000000000000000000000000000000000000238900000000000000000000000000   010420                                                                                             000004
102473318220001190000009000910152974777717                           0000007777176          00000000000000090601042087236     0000000000290000001P280320000000000238923704151  000000000020800000000000000000000000000000000000000000000000000000000000000000000000000238900000000000000000000000000   010420                                                                                             000005
102473318220001190000009000910152974533843                           0000005338438          00000000000000090601042087236     0000000000290000001P280120000000000023823704151  000000000020800000000000000000000000000000000000000000000000000000000000000000000000000023800000000000000000000000000   010420                                                                                             000006
102473318220001190000009000910152974769796                           0000007697961          00000000000000090601042087236     0000000000290000001P280320000000000179523704151  000000000020800000000000000000000000000000000000000000000000000000000000000000000000000179500000000000000000000000000   010420                                                                                             000007
102473318220001190000009000910152974183760                           0000001837606          00000000000000090601042087236     0000000000290000001P281119000000000238923704151  000000000020800000000000000000000000000000000000000000000000000000000000000000000000000238900000000000000000000000000   010420                                                                                             000008
102473318220001190000009000910152974407845                           0000004078456          00000000000000090601042087236     0000000000290000001P231219000000000238923704151  000000000020800000000000000000000000000000000000000000000000000000000000000000000000000238900000000000000000000000000   010420                                                                                             000009
102473318220001190000009000910152974519815                           0000005198157          00000000000000090601042087236     0000000000290000001P280120000000000238923704151  000000000020800000000000000000000000000000000000000000000000000000000000000000000000000238900000000000000000000000000   010420                                                                                             000010
102473318220001190000009000910152974618444                           0000006184446          00000000000000090601042087236     0000000000290000001P280220000000000238923704151  000000000020800000000000000000000000000000000000000000000000000000000000000000000000000238900000000000000000000000000   010420                                                                                             000011
102473318220001190000009000910152974782985                           0000007829851          00000000000000090601042087236     0000000000290000001P280320000000000238923704151  000000000020800000000000000000000000000000000000000000000000000000000000000000000000000238900000000000000000000000000   010420                                                                                             000012
102473318220001190000009000910152974185058                           0000001850588          00000000000000090601042087236     0000000000290000001P281119000000000238923704151  000000000020800000000000000000000000000000000000000000000000000000000000000000000000000238900000000000000000000000000   010420                                                                                             000013
102473318220001190000009000910152974409134                           0000004091341          00000000000000090601042087236     0000000000290000001P231219000000000238923704151  000000000020800000000000000000000000000000000000000000000000000000000000000000000000000238900000000000000000000000000   010420                                                                                             000014
102473318220001190000009000910152974521125                           0000005211253          00000000000000090601042087236     0000000000290000001P280120000000000238923704151  000000000020800000000000000000000000000000000000000000000000000000000000000000000000000238900000000000000000000000000   010420                                                                                             000015
9201237                                                                                          00000000000000000