02RETORNO01COBRANCA       00000000000004551915ASSOCIACAO PAULISTA DE CIRURGI237BRADESCO       0104200160000001467                                                                                                                                                                                                                                                                          010420         000001
102473318220001190000009000910152974187196                           0000001871966          00000000000000090601042087236     0000000000290000001P281119000000000238923704151  000000000020800000000000000000000000000000000000000000000000000000000000000000000000000238900000000000000000000000000   010420                                                                                             000002
102473318220001190000009000910152974523271                           0000005232719          00000000000000090601042087236     0000000000290000001P280120000000000238923704151  000000000020800000000000000000000000000000000000000000000000000000000000000000000000000238900000000000000000000000000   010420                                                                                             000003
102473318220001190000009000910152974623255                           0000006232551          00000000000000090601042087236     0000000000290000001P280220000000000238923704151  000000000020800000000000000000000000000000000000000000000000000000000000000000000000000238900000000000000000000000000   010420                                                                                             000004
102473318220001190000009000910152974786040                           0000007860405          00000000000000090601042087236     0000000000290000001P280320000000000238923704151  000000000020800000000000000000000000000000000000000000000000000000000000000000000000000238900000000000000000000000000   010420                                                                                             000005
9201237                               